:100000000C9434000C9451000C9451000C94510049
:100010000C9451000C9451000C9451000C9400135A
:100020000C9451000C9451000C9451000C9451000C
:100030000C9451000C94E9120C9478130C94510018
:100040000C9451000C9451000C9451000C945100EC
:100050000C9451000C9451000C9451000C945100DC
:100060000C9451000C94510011241FBECFEFD8E026
:10007000DEBFCDBF11E0A0E0B1E0EEE4F0E302C0EE
:1000800005900D92A633B107D9F722E0A6E3B1E0BF
:1000900001C01D92A43CB207E1F70E940A140C941F
:1000A00025180C9400008BEF91E09093F001809361
:1000B000EF018091C30290E09093F2018093F101EF
:1000C0008091F401833009F062C08091FD0190912C
:1000D000FE01885891098D35910508F054C0809132
:1000E000C302843021F58091FF0190910002809736
:1000F0004797E8F4809101029091020209970997CD
:10010000B0F41092EE011092ED018FEF9FEFDC0141
:100110008093E9019093EA01A093EB01B093EC0185
:1001200081E090E09093E8018093E7010895809149
:10013000C302843440F18091FF0190910002825407
:1001400091098E9700F530E020E080E090E0DC013E
:10015000F901EF5FFD4F408151814950510949300C
:10016000510588F4F901ED5FFD4F40815181465101
:1001700051094131510570F040815181465051097A
:100180004730510530F11092F4011092C30290E013
:1001900080E00895880F991FAA1FBB1F81602C5F04
:1001A0003F4F20383105A1F620E230E03093EE01D8
:1001B0002093ED018093E9019093EA01A093EB0174
:1001C000B093EC011092E8011092E70181E090E019
:1001D0000895880F991FAA1FBB1FE1CF009721F038
:1001E0008130910599F108958091440190914501E4
:1001F0002091420130914301281739078CF4109265
:10020000450110924401809144019091450101966D
:1002100090934501809344015B9881E090E00895BC
:100220000E9724F0109245011092440180914401F0
:1002300090914501019690934501809344018091EE
:10024000670181115B9A90E080E0089580914401FC
:1002500090914501209140013091410128173907C3
:100260000CF30E9764F6CFCF009721F08130910503
:1002700099F1089580914A0190914B012091480194
:1002800030914901281739078CF410924B011092D4
:100290004A0180914A0190914B01019690934B0144
:1002A00080934A015D9881E090E008950E9724F0D4
:1002B00010924B0110924A0180914A0190914B019A
:1002C000019690934B0180934A01809167018111BF
:1002D0005D9A90E080E0089580914A0190914B01F1
:1002E0002091460130914701281739070CF30E97EA
:1002F00064F6CFCF009721F08130910599F10895F0
:10030000809150019091510120914E0130914F0107
:10031000281739078CF410925101109250018091E6
:100320005001909151010196909351018093500199
:100330005E9881E090E008950E9724F010925101AC
:10034000109250018091500190915101019690932B
:100350005101809350018091670181115E9A90E074
:1003600080E00895809150019091510120914C01BD
:1003700030914D01281739070CF30E9764F6CFCF53
:10038000AF92BF92CF92DF92EF92FF920F931F93A3
:10039000FC01892B61F52091780130917901409120
:1003A0007A0150917B0160917C0170917D01A09058
:1003B0007001B0907101C0907201D0907301E09013
:1003C0007401F09075010091760110917701809190
:1003D0007E0190917F010E94FC1749F080916E018F
:1003E00090916F01029690936F0180936E01CF01FF
:1003F0001F910F91FF90EF90DF90CF90BF90AF9043
:100400000895811103C0109280000895219A90E40C
:100410009093800099E090938100282F30E0220F84
:10042000331F032E000C440B550B60E074E284EF85
:1004300090E00E942D1621503109309389002093BD
:1004400088000895CF9381309105B9F05CF4892B31
:1004500009F476C01092600110925F0190E080E094
:10046000CF9108958230910509F465C0039791F703
:10047000809161018330C8F163C0109263011092D2
:1004800062011092610180916001882341F1109214
:1004900060018091620190916301892BA1F4C09168
:1004A0006101EC2FF0E0EE0FFF1FE25DFE4F808157
:1004B0000E94010284EF91E09093630180936201B6
:1004C000CF5FC093610180916201909163010197B8
:1004D000909363018093620182E090E0C1CF8091AC
:1004E0005F01882369F110925F0180916201909110
:1004F0006301892BA1F4C0916101EC2FF0E0EE0FB4
:10050000FF1FE85DFE4F80810E94010284EF91E0B1
:100510009093630180936201CF5FC09361018091EA
:10052000620190916301019790936301809362014E
:1005300083E090E095CF80916101843008F4A9CFE9
:100540001092800081E090E08BCF27E0482F50E0B0
:100550009BB1BA01022E02C0759567950A94E2F725
:1005600060FF09C094609BB95F9A5F98215080F743
:100570005C9A5C9808959B7FF6CFCF93DF93EC0154
:10058000892B21F480916D010E94A502CE01DF919B
:10059000CF91089510925601109255011092540176
:1005A0001092530110926F0110926E0108952A98D3
:1005B000299A8EBD0DB407FEFDCF2A9A08952A9878
:1005C00029988EBD0DB407FEFDCF2A9A0895CF93CA
:1005D000DF938AE20E94DF0280E00E94D70280E07F
:1005E0000E94D70280E00E94D70281E80E94D702D1
:1005F0008BE20E94DF0280E00E94D70280E00E942E
:10060000D70280E00E94D70282E80E94D7028CE2E3
:100610000E94DF02C2E8D1E480E00E94D70280E0BD
:100620000E94D7022197C1F7DF91CF910895EF92F1
:10063000FF920F931F93CF93DF93182F092FEB0196
:10064000F42EE52E8AE20E94DF02802F0E94D7025C
:10065000812F0E94D702802F0E94D702812F0E94F3
:10066000D7028BE20E94DF028D2F0E94D7028C2FCF
:100670000E94D7028D2F0E94D7028C2F0E94D70292
:100680008CE20E94DF028E2D0E94D7028F2DDF9117
:10069000CF911F910F91FF90EF900C94D7026F9222
:1006A0007F928F929F92AF92BF92CF92DF92EF9202
:1006B000FF920F931F93CF93DF936C01EB014C01DB
:1006C0003A01680E791E7B01E20EF31E570181E0AC
:1006D000A81AB108A801BE01C4010E941703A8010D
:1006E000B501C4010E9417038FEF881A980A861477
:1006F000970481F781E0881A9108A801BE01C6011C
:100700000E941703A801BE01C4010E94170321968D
:10071000CE15DF0591F7DF91CF911F910F91FF90DB
:10072000EF90DF90CF90BF90AF909F908F907F9091
:100730006F9008952F923F924F925F926F927F92A7
:100740008F929F92AF92BF92CF92DF92EF92FF92E1
:100750000F931F93CF93DF9300D000D000D0CDB77D
:10076000DEB72C011B013A01213309F420C20CF041
:10077000CBC0283009F479C40CF056C0233009F4FA
:10078000DDC20CF5213009F412C20CF065C222233F
:1007900009F47FC026960FB6F894DEBF0FBECDBF1A
:1007A000DF91CF911F910F91FF90EF90DF90CF904D
:1007B000BF90AF909F908F907F906F905F904F9081
:1007C0003F902F900895253009F4B3C00CF40CC36A
:1007D000263009F47BC32730E9F6610172012BE072
:1007E000E20EF11C81010D5E1F4FC2010C969A832F
:1007F00089830C151D050CF0CCC391012F5F3F4F71
:100800003A832983E414F5042CF2A301B101C20157
:100810000E941703A30169817A81C2010E94170314
:100820008FEF481A580AEECF2D3009F4B1C534F5D0
:100830002A3009F4BDC30CF483C42B3009F4F0C48E
:100840002C3009F0A7CF8101510123E1A20EB11C88
:10085000C20101969A838983A016B1060CF471C572
:10086000A301B801C2010E941703A301B801898145
:100870009A810E9417030F5F1F4FEECF2F3009F4AC
:100880002CC60CF4D5C0253209F46DC6203309F00E
:1008900081CF3A822982510123E1A20EB11C62016B
:1008A0003BE0C30ED11C72018FEFE81AF80A8201F7
:1008B000065F1F4F29813A81A216B3060CF058C17A
:1008C00081010F5F1F4FC10144969A838983C4142D
:1008D000D5040CF45FCFA301B101C2010E9417033C
:1008E000A301B801C2010E941703A301B501C2010F
:1008F0000E941703A30169817A81C2010E94170334
:100900003FEF431A530AE3CF213409F451C30CF0EB
:1009100080C0263309F4DAC20CF05CC0233309F43A
:100920000DC20CF499C1243309F45EC2253309F0D9
:1009300031CF3A822982410133E1830E911C520169
:100940008BE0A80EB11C8101065F1F4F72019AE077
:10095000E90EF11C62012FEFC21AD20A89819A8135
:10096000881699060CF092C261019FEFC91AD90A44
:1009700071012AE0E20EF11C8101055F1F4FC101E8
:1009800044969A838983A414B5040CF403CFA3017D
:10099000B101C2010E941703A301B601C2010E9466
:1009A0001703A301B701C2010E941703A301B801F5
:1009B000C2010E941703A301B401C2010E941703E0
:1009C000A30169817A81C2010E9417039FEF491A2E
:1009D000590AD9CF283309F448C30CF4FECE293381
:1009E00009F4AEC32A3309F0D5CE6B5F7F4F8A017D
:1009F00022E030E042E050E00E944F03B101615F2D
:100A00007F4F22E030E042E050E0C2010E944F03FD
:100A1000C1CE263409F461C544F5233409F413CF5B
:100A20000CF4FEC3243409F4B3C4253409F0B2CE67
:100A3000810191012C5E3F4F3A83298372013FEF80
:100A4000E31AF30A89819A81801791070CF40BC588
:100A5000A301B801C2010E941703A301B801C70195
:100A60000E9417030F5F1F4FEDCF203509F4BFC55C
:100A7000FCF42C3409F08ECE7B018B010D5E1F4FF0
:100A80009C012F5F3F4F3A8329830E151F050CF4FD
:100A900012C6A301B701C2010E941703A301B70147
:100AA00089819A810E9417033FEFE31AF30AEDCF81
:100AB000293509F419C6283709F06CCE10923A018D
:100AC0001092390110923801109237018B01055FA5
:100AD0001F4F7C018FEFE81AF80A62019BE0C90EF4
:100AE000D11C52012AE0A20EB11C021513050CF410
:100AF00051CE8091390190913A019A838983A30163
:100B0000B101840D951D0E941703A301B1018981D4
:100B10009A818E0D9F1D0E94170329813A812F5FB4
:100B20003F4F30933A0120933901809137019091E2
:100B300038019A838983A301B101C60129813A81D1
:100B4000821B930B0E941703A301B101C5012981E8
:100B50003A81821B930B0E94170389819A81019627
:100B600090933801809337019FEF291A390ABDCF3E
:100B7000A30169817A81C2010E941703A3016981DF
:100B80007A81C7010E941703A30169817A81C60196
:100B90000E941703A30169817A81C8010E9417038B
:100BA00029813A812F5F3F4F3A83298383CE710198
:100BB000C10143969A83898382010A5F1F4F6201B4
:100BC00097E0C90ED11C29813A812E153F0574F09A
:100BD000A301B701C8010E941703A301B701C60111
:100BE0000E9417033FEFE31AF30AEDCF72018BE087
:100BF000E80EF11C620197E0C90ED11C520122E0FF
:100C0000A20EB11C41013FEF831A930A81010C5ED1
:100C10001F4FE414F5040CF4BDCDC414D5046CF0DE
:100C2000A414B50454F4A301B101C2010E94170336
:100C3000A301B401C2010E941703A30169817A8153
:100C4000C2010E941703A301B801C2010E94170349
:100C50008FEF481A580ADDCF3A822982410193E189
:100C6000890E911C52012BE0A20EB11C8101065F7E
:100C70001F4F72013FEFE31AF30A62018AE0C80EC8
:100C8000D11C29813A8182169306BCF561013FEFA0
:100C9000C31AD30A71018AE0E80EF11C8101055FD5
:100CA0001F4F91012C5E3F4F3A832983A414B50452
:100CB0000CF470CDA301B101C2010E941703A3017E
:100CC000B601C2010E941703A301B701C2010E942D
:100CD0001703A301B801C2010E941703A301B401C5
:100CE000C2010E941703A30169817A81C2010E9497
:100CF00017033FEF431A530AD9CF89819A81A30181
:100D0000081719078CF0BC01C6010E941703A30144
:100D100069817A81C5010E94170329813A812F5F79
:100D20003F4F3A832983ADCF69817A81C2010E9406
:100D30001703A30169817A81C701EDCF81014101C8
:100D400084E1880E911C52019BE0A90EB11C920116
:100D5000265F3F4F3A83298380169106BCF56101D7
:100D60003FEFC31AD30A710189E0E80EF11C81013B
:100D7000065F1F4F91012D5E3F4F3A832983A414D4
:100D8000B5040CF407CDA301B101C2010E94170301
:100D9000A301B601C2010E941703A301B701C2015A
:100DA0000E941703A301B801C2010E941703A30107
:100DB00069817A81C2010E941703A301B401C201B3
:100DC0000E9417033FEF431A530AD9CFA301B8017A
:100DD00089819A810E941703A301B801C5010E946D
:100DE00017030F5F1F4FB8CF3A822982710184E148
:100DF000E80EF11C9201255F3F4F490161013AE085
:100E0000C30ED11C52018FEFA81AB80A8201065FE7
:100E10001F4F29813A81E216F30604F1C216D30668
:100E20005CF0A301B901C2010E941703A30169810B
:100E30007A81C5010E941703A30169817A81C401E7
:100E40000E941703A30169817A81C8010E941703D8
:100E500089819A8101969A838983DBCF8101065F1C
:100E60001F4F99E0290E311C841495040CF492CC88
:100E7000A301B801C2010E941703A301B101C2017D
:100E80000E9417032FEF421A520AEECF29813A81AE
:100E9000A3010217130784F0B901C2010E941703CE
:100EA000A30169817A81C6010E94170389819A8111
:100EB00001969A83898352CD69817A81C7010E9404
:100EC0001703A30169817A81C501EECF3A82298295
:100ED000410124E1820E911C52013BE0A30EB11CA2
:100EE00082010F5F1F4F71018AE0E80EF11C620161
:100EF0009AE0C90ED11C29813A81821693063CF5ED
:100F0000C10109969A8389838101065F1F4F93E18E
:100F1000290E311CA414B5040CF43CCCA301698146
:100F20007A81C2010E941703A301B801C2010E9485
:100F30001703A301B101C2010E941703A301B40169
:100F4000C2010E9417039FEF491A590AE3CFA30178
:100F500069817A81C2010E941703A30169817A81A4
:100F6000C8010E94170329813A81E216F3065CF456
:100F7000A301B901C6010E941703A30169817A8107
:100F8000C5010E94170389819A8101969A838983FA
:100F9000B2CFA301B601C7010E941703A301B60196
:100FA00089819A810E9417033FEFC31AD30A21CC8B
:100FB0003A82298252019BE0A90EB11C610124E111
:100FC000C20ED11C72013FEFE31AF30A8201065FE1
:100FD0001F4F89819A81C816D9064CF571019FEF80
:100FE000E91AF90A8101075F1F4F9101265F3F4F00
:100FF0003A832983A414B5040CF4CCCBA301B1012A
:10100000C2010E941703A301B701C2010E94170386
:10101000A301B801C2010E941703A30169817A816B
:10102000C2010E9417039FEF491A590AE3CFA30197
:1010300069817A81C2010E941703A30169817A81C3
:10104000C7010E941703A30169817A81C8010E9428
:101050001703A30169817A81C5010E941703898161
:101060009A8101969A838983B4CF3A822982410179
:1010700023E1820E911C52013BE0A30EB11C7201D0
:101080008FEFE81AF80A8201065F1F4F29813A8123
:1010900082169306BCF561013FEFC31AD30A7101B2
:1010A0008AE0E80EF11C8101055F1F4F91012C5E63
:1010B0003F4F3A832983A414B5040CF46BCBA301EE
:1010C000B101C2010E941703A301B601C2010E942F
:1010D0001703A301B701C2010E941703A301B801BE
:1010E000C2010E941703A301B401C2010E941703A9
:1010F000A30169817A81C2010E9417039FEF491AF7
:10110000590AD9CFA30169817A81C2010E941703CC
:10111000A30169817A81C7010E941703A301698134
:101120007A81C5010E941703A30169817A81C801F0
:101130000E94170389819A8101969A838983A6CF99
:101140003A822982510123E1A20EB11CC2010B9601
:101150004C01710199E0E90EF11C62012FEFC21AF6
:10116000D20A8201065F1F4F89819A81A816B906AB
:101170000CF1E816F9065CF0A301BC01C2010E9463
:101180001703A30169817A81C6010E941703A30195
:1011900069817A81C8010E941703A30169817A815C
:1011A000C4010E94170329813A812F5F3F4F3A8380
:1011B0002983DACFC10101969A83898361019AE07C
:1011C000C90ED11C71012BE0E20EF11C81010C5EF5
:1011D0001F4F841495040CF4DDCAA301B101C201B0
:1011E0000E941703A30169817A81C2010E9417033B
:1011F000A301B601C2010E941703A301B701C201F6
:101200000E941703A301B501C2010E941703A301A5
:10121000B801C2010E9417033FEF431A530AD9CF06
:101220003E822D82C10144969A8389839201255F73
:101230003F4F3C832B8342013FEF831A930A810186
:10124000065F1F4F72018AE0E80EF11C620198E010
:10125000C90ED11C520129E0A20EB11C89819A81CC
:101260002D813E81821793076CF1A301B901C20160
:101270000E941703A3016D817E81C4010E941703A0
:101280008D819E81A301081719078CF0BC01C6014E
:101290000E941703A3016D817E81C5010E9417037F
:1012A0002D813E812F5F3F4F3E832D83D7CF6D81B0
:1012B0007E81C7010E941703A3016D817E818B810E
:1012C0009C81ECCF620139E0C30ED11C51018FEF3C
:1012D000A81AB80A710199E0E90EF11C8101065FB4
:1012E0001F4F410123E1820E911C8B819C8184154B
:1012F00095050CF44FCAC414D50454F0A301B101F0
:10130000C2010E941703A301B501C2010E94170385
:10131000A301B701C2010E941703A301B801C201D2
:101320000E941703A301B401C2010E941703A30185
:1013300069817A81C2010E9417039FEF491A590AF5
:10134000D4CF62019BE0C90ED11C71012FEFE21ACC
:10135000F20A81010C5E1F4FC414D5040CF41ACAA2
:10136000A301B101C2010E941703A301B701C20189
:101370000E941703A301B501C2010E941703A30134
:10138000B801C2010E9417033FEF431A530AE4CF8A
:101390003C822B82510183E1A80EB11C42019FEFD8
:1013A000891A990A81010F5F1F4F710122E1E20E34
:1013B000F11C620139E0C30ED11CC2010A969A8366
:1013C00089832B813C81A216B30634F1A301B901B4
:1013D000C2010E941703A3016B817C81C4010E949A
:1013E00017038B819C81081719077CF4E816F9060E
:1013F00064F0A301BC01C6010E941703A3016B8125
:101400007C8189819A810E9417032B813C812F5F07
:101410003F4F3C832B83D5CF620138E0C30ED11CF4
:1014200071018FEFE81AF80A81010C5E1F4FC41496
:10143000D5040CF4AFC9A301B101C2010E94170386
:10144000A301B701C2010E941703A301B501C201A4
:101450000E941703A301B801C2010E9417039FEF66
:10146000491A590AE4CF52019BE0A90EB11C61014F
:101470002FEFC21AD20A710139E0E30EF11C81018B
:10148000065F1F4F410183E1880E911CA414B5042F
:101490000CF480C9A301B101C2010E941703A3018A
:1014A000B601C2010E941703A301B701C2010E9445
:1014B0001703A301B801C2010E941703A301B401DD
:1014C000C2010E941703A30169817A81C2010E94AF
:1014D00017039FEF491A590AD9CF710181010C5E98
:1014E0001F4F92012F5F3F4F3A8329830E151F052F
:1014F0007CF0A301B701C2010E941703A301B70149
:1015000089819A810E9417033FEFE31AF30AEECF15
:1015100052018BE0A80EB11C61019FEFC91AD90AD4
:10152000710129E0E20EF11C8101065F1F4FA41436
:10153000B5040CF42FC9A301B101C2010E94170325
:10154000A301B601C2010E941703A301B701C201A2
:101550000E941703A301B801C2010E9417033FEFC5
:10156000431A530AE4CF10923A01109239011092B3
:101570003801109237018A0122E030E042E050E069
:101580000E944F0372012AE0E20EF11CB101665F76
:101590007F4F22E030E042E050E0C7010E944F035D
:1015A00061013BE0C30ED11C8BE0480E511CC214FC
:1015B000D3040CF4EFC80091370110913801A30156
:1015C000B101C201801B910B0E941703A301B1015D
:1015D000C701801B910B0E9417030F5F1F4F1093D1
:1015E0003801009337019FEF291A390AE0CF7A8337
:1015F00069834C012BE0820E911C8B010D5E1F4F05
:101600007C013FEFE31AF30A6B0189E0C80ED11C9D
:1016100052019AE0A90EB11C29813A8102171307E1
:1016200044F571013FEFE31AF30A8101065F1F4F92
:10163000C1010B969A838983841495040CF4AAC87B
:10164000A301B101C2010E941703A301B701C201A6
:101650000E941703A301B801C2010E941703A3014E
:1016600069817A81C2010E9417039FEF491A590AC2
:10167000E3CFA30169817A81C2010E941703A3010C
:1016800069817A81C7010E94170329813A81C216B4
:10169000D3065CF0A301B901C5010E941703A301A1
:1016A00069817A81C4010E94170389819A81019618
:1016B0009A838983B1CF72018BE0E80EF11C94E12B
:1016C000290E311CE414F5040CF464C8A301B8011C
:1016D000C2010E941703A301B101C2010E941703B6
:1016E0002FEF421A520AEECF0A969A83898362013B
:1016F00096E0C90ED11C72015B01A418B5088501E2
:101700000E0D1F1DA301B801C7010E9417032FEF83
:10171000E21AF20AA301B801C7010E941703A3014C
:10172000B80189819A810E94170389819A81019762
:101730009A838983A301B8010E941703EC14FD0466
:10174000F1F681010B5F1F4F93E1290E311C7201ED
:1017500024E0E20EF11C35E0430E511C2016310648
:101760000CF418C8A301B801C7010E941703A30114
:10177000B801C2010E941703A301B801C6010E946B
:1017800017030F5F1F4FEACF2F923F924F925F9246
:101790006F927F928F929F92AF92BF92CF92DF9281
:1017A000EF92FF920F931F93CF93DF93CDB7DEB7E6
:1017B0002B970FB6F894DEBF0FBECDBF8091780196
:1017C00089833090790120907A0180917B018A830E
:1017D00080917C018B8380917D018C8380917E013F
:1017E0008D8380917F018E832981332D422D5A81F3
:1017F0006B817C818D819E8108E00E94D3172F70C0
:101800002F83209366012981332D422D5A816B81CC
:101810007C818D819E8104E00E94D3172F702887E0
:101820002093650189818F7089878093640140903E
:1018300070015090710160907201709073018090FE
:10184000740190907501809176018B87809177016A
:101850008A872981332D422D5A816B817C818D812C
:101860009E815201630174010B851A850E94FC1749
:1018700009F07FC19201A301B401C801A0E00E9458
:10188000051809F46DC174E660E050E040E030E016
:1018900020E090E080E070935701609358015093EE
:1018A000590140935A0130935B0120935C0190935E
:1018B0005D0180935E010E94E70228E74FEF5FEF32
:1018C00068E270E08AE090E00E949A039201A3012E
:1018D000B4018B859A8508E00E94D31759016A01EB
:1018E0007B018C012F81922F990F990B392F492F52
:1018F000592F692F792F892F0E94FC1761F40FE16E
:1019000010E02AE130E042E150E06EE170E08BE16E
:1019100090E00E944F032F814FE150E060E270E0C1
:101920008EE190E00E949A039201A301B4018B859D
:101930009A8504E00E94D3172F70A22E2885922F3B
:10194000990F990B392F492F592F692F792F892FEB
:10195000B12CC12CD12CE12CF12C00E010E00E9424
:10196000FC1761F400EE17E02AE130E042E150E0BC
:101970006EE170E08FE290E00E944F03288540EE18
:1019800057E060E270E082E390E00E949A03842DC9
:101990008F70A82E2985922F990F990B392F492FD7
:1019A000592F692F792F892FB12CC12CD12CE12CE3
:1019B000F12C00E010E00E94FC1761F400E018EF49
:1019C0002AE130E042E150E06EE170E083E490E033
:1019D0000E944F03298540E058EF60E270E086E402
:1019E00090E00E949A0340905701509058016090F7
:1019F000590170905A0180905B0190905C01809138
:101A00005D018A8380915E018983F4E6AF2EB12C5B
:101A1000C12CD12CE12CF12C00E010E09201A301AB
:101A2000B4018A8199810E94FE16AAE0AA2E0E9422
:101A3000FC16A0E00E94051841F04FEF5FEF6CE349
:101A400070E08AE090E00E949A039201A301B40141
:101A50008A819981A9E00E940518B1F0ACF0EAE012
:101A6000AE2EB12CC12CD12CE12CF12C00E010E0D9
:101A70000E94FE160E94FC164FEF5FEF6CE370E0D1
:101A80008EE190E00E949A038AE0A82EB12CC12C2E
:101A9000D12CE12CF12C00E010E09201A301B40163
:101AA0008A8199810E94FC164FEF5FEF6CE370E032
:101AB00082E390E00E949A0325E24FEF5FEF61E43A
:101AC00070E086E490E00E949A03209155014FEF68
:101AD00057E06AE570E08AE090E00E949A032AE30A
:101AE0004FEF57E06AE570E08AE190E00E949A03C8
:101AF00080915301909154012AE030E0B9010E9495
:101B000090168983CB01B9010E949016282F4FEFC0
:101B100057E06AE570E080E290E00E949A03298134
:101B20004FEF57E06AE570E084E390E02B960FB644
:101B3000F894DEBF0FBECDBFDF91CF911F910F9103
:101B4000FF90EF90DF90CF90BF90AF909F908F90DD
:101B50007F906F905F904F903F902F900C949A03DE
:101B6000742D652D562D472D382D292D9B858A8561
:101B700092CE29815A816B817C818D819E81520117
:101B8000630174010B851A850E94FC1761F15CF1F9
:101B900014E6A12EB12CC12CD12CE12CF12C00E0AB
:101BA00010E09201A301B4018B859A850E94A416CE
:101BB000A980B32CC22CDA80EB80FC800D811E81C1
:101BC0000E94FE162093570130935801409359010B
:101BD00050935A0160935B0170935C0180935D01A7
:101BE00090935E0168CEB4E6AB2EB12CC12CD12C03
:101BF000E12CF12C00E010E029815A816B817C817D
:101C00008D819E810E94A4165201630174010B858F
:101C10001A85D6CF0097D9F0019709F05BC10E94D1
:101C20005300892BA1F08091E9019091EA01A091E4
:101C3000EB01B091EC018093690190936A01A0934C
:101C40006B01B0936C011092F4011092C3020E94D8
:101C50005300892BA1F08091E9019091EA01A091B4
:101C6000EB01B091EC018093690190936A01A0931C
:101C70006B01B0936C011092F4011092C302809139
:101C8000690190916A01A0916B01B0916C018D3551
:101C900022EA92072FEFA207B10529F58FE680937C
:101CA00068010E94CA0281E0809367011092780166
:101CB0001092790110927A0110927B0110927C01AE
:101CC00010927D0110927E0110927F010E94C40B40
:101CD0001092690110926A0110926B0110926C01CE
:101CE00081E090E008958F3C20E392072FEFA20758
:101CF000B105B1F5E091660120917801309179014B
:101D000040917A0150917B0160917C0170917D013D
:101D100080917E0190917F01EF3041F430E040E00E
:101D200050E060E070E080E090E009C0EF303CF40B
:101D30003F5F4F4F5F4F6F4F7F4F8F4F9F4F2093AE
:101D400078013093790140937A0150937B0160933D
:101D50007C0170937D0180937E0190937F01B6CFCB
:101D60008F3E20E192072FEFA207B10501F5E09128
:101D70006601209178013091790140917A0150916A
:101D80007B0160917C0170917D0180917E01909139
:101D90007F01E11102C03F60D2CF1E1684F63150A0
:101DA000410951096109710981099109C8CF873E2B
:101DB00028E192072FEFA207B105F1F4E091650148
:101DC000209178013091790140917A0150917B0105
:101DD00060917C0170917D0180917E0190917F01E5
:101DE000EF3019F42F703F709ACFA0E1EF300CF074
:101DF000A6CF0E94F017A3CF873C28E392072FEFCE
:101E0000A207B105D1F4E0916501209178013091EC
:101E1000790140917A0150917B0160917C01709130
:101E20007D0180917E0190917F01E11102C0206FC0
:101E300086CFA0EF1E16ECF282CF85382AE79207F4
:101E40002FEFA207B105D9F4E09164012091780148
:101E50003091790140917A0150917B0160917C0130
:101E600070917D0180917E0190917F01EF3011F49E
:101E7000207FB9CFA1E0EF300CF4BBCF60CF853A23
:101E80002AE592072FEFA207B105D9F4E09164018A
:101E9000209178013091790140917A0150917B0134
:101EA00060917C0170917D0180917E0190917F0114
:101EB000E11102C02F6043CF1E160CF040CFAFEFF0
:101EC00098CF87399846AF4FB10509F4FFCE1092ED
:101ED0006801FECE90E080E00895EF92FF920F93AC
:101EE0001F93CF93DF93009729F0019709F4ECC07B
:101EF00080E0E8C00E941D169F707C01CF2DCC0FA2
:101F0000CC0B80937001F0927101C0937201C09369
:101F10007301C0937401C0937501C0937601C0939F
:101F200077010E94CA0210927801109279011092F2
:101F30007A0110927B0110927C0110927D01109227
:101F40007E0110927F0197014C2F5C2F6C2F7C2F0C
:101F50008C2F9C2F08E00E94D317F90120933F019A
:101F600097014C2F5C2F6C2F7C2F8C2F9C2F04E023
:101F70000E94D3172F7020933E018E2D8F70E82E74
:101F800080933D01E0934201F093430130E03093B0
:101F9000490120934801F12CF0924F01E0924E014B
:101FA0002091670121110CC010924301109242014F
:101FB000109249011092480110924F0110924E0167
:101FC000409142015091430180E190E014161506C2
:101FD00014F4841B950B9093410180934001409130
:101FE00048015091490180E190E01416150614F45F
:101FF000841B950B909347018093460140914E01BD
:1020000050914F0180E190E01416150614F4841BE2
:10201000950B90934D0180934C01222309F468CFD6
:10202000E091780110917901D0917A01E0907B01E3
:10203000F0907C01C0917D01B0917E01A0917F0163
:102040002E2F312F4D2F5E2D6F2D7C2F8B2F9A2F02
:1020500008E00E94D317F22FFF70F09366012E2F35
:10206000312F4D2F5E2D6F2D7C2F8B2F9A2F04E05B
:102070000E94D3172F7020936501EF70E0936401E5
:1020800080916D0140913F0150E0F417150699F5DC
:10209000816080936D0180916D0140913E0150E01F
:1020A0002417150651F5826080936D0180916D01B2
:1020B00020913D0130E0E217130609F5846080931A
:1020C0006D0181E090E010C021E0809168018F36C1
:1020D00009F420E036B131FB882780F990E031FD2A
:1020E00007CF213009F49CCFDF91CF911F910F9141
:1020F000FF90EF9008958E7FCCCF8D7FD5CF8B7FD3
:10210000DECF2F923F924F925F926F927F928F928B
:102110009F92AF92BF92CF92DF92EF92FF920F9376
:102120001F93CF93DF93CDB7DEB72D970FB6F894FB
:10213000DEBF0FBECDBF3C0181E06816710491F196
:1021400092E06916710409F434C2672809F03AC1B3
:102150000E94CA02809168018F3629F08091670140
:10216000882309F42FC11092680166246394712CAE
:10217000C3012D960FB6F894DEBF0FBECDBFDF9121
:10218000CF911F910F91FF90EF90DF90CF90BF9074
:10219000AF909F908F907F906F905F904F903F9007
:1021A0002F900895809168018F3639F4109268015C
:1021B0000E94CA02F2E06F2E712C209078013090BC
:1021C000790140907A0150907B0180907C01909041
:1021D0007D01E0917E01ED87F0917F01FB87809189
:1021E00070018983909171019A83E0917201EB8370
:1021F000F0917301FC83809174018D83909175013E
:102200009E83E0917601EF83F0917701F887910149
:10221000A201B4018D859B85A980BA80CB80DC802A
:10222000ED80FE808F010E94FC1709F06DC184E6ED
:1022300080935701109258011092590110925A013F
:1022400010925B0110925C0110925D0110925E0190
:1022500080916E0190916F016CE370E00E94901686
:10226000A62F9A87898760935501709356019093A2
:102270005401809353019101A201B4018D859B8586
:10228000A980BA80CB80DC80ED80FE800F8118852C
:102290000E94FC1709F06CCF10915201E12FE770FA
:1022A00084E0E89FF0011124E85FFE4F40815181F6
:1022B0002A2F6AE570E08AE090E00E949A03E12FFD
:1022C000F0E0FC87EB873196E770FF27EE0FFF1FEA
:1022D000EE0FFF1FE85FFE4F408151812AE36AE560
:1022E00070E08AE190E00E949A0389859A856AE00D
:1022F00070E00E949016262F982EEB85FC85329672
:10230000E770FF27EE0FFF1FEE0FFF1FE85FFE4F86
:10231000408151816AE570E080E290E00E949A037A
:102320008B859C85039687709927880F991F880F46
:10233000991F885F9E4FFC0140815181292D6AE5DC
:1023400070E084E390E00E949A030E945300892B7E
:1023500079F18091E9019091EA01A091EB01B091AE
:10236000EC018093690190936A01A0936B01B09393
:102370006C010E94CA0210926701109278011092BB
:10238000790110927A0110927B0110927C011092D7
:102390007D0110927E0110927F0180E00E94A502D3
:1023A0000E94E7021092F4011092C302712C612C7A
:1023B0001F5F183008F407C11092520161147104B4
:1023C00009F0D6CE80916701811160C0F091520171
:1023D000F983EF2FE77084E0E89FF0011124E85FB4
:1023E000FE4F4081518120E562E370E08BE190E097
:1023F0000E949A03F981EF2FF0E0FA87E98731967E
:10240000E770FF27EE0FFF1FEE0FFF1FE85FFE4F85
:10241000408151812CE462E370E08FE290E00E9401
:102420009A03E985FA853296E770FF27EE0FFF1FC2
:10243000EE0FFF1FE85FFE4F4081518121E462E310
:1024400070E083E490E00E949A0389859A85039660
:1024500087709927880F991F880F991F885F9E4F53
:10246000FC014081518129E562E370E087E590E05D
:102470000E949A030FEF1FEF2EE130E040E550E09D
:102480006EE270E086E190E00E944F030E941D160C
:102490009F709093710180937001892F880F880B32
:1024A000809372018093730180937401809375010E
:1024B00080937601809377010E945300892BC9F0A5
:1024C0008091E9019091EA01A091EB01B091EC01BA
:1024D0008093690190936A01A0936B01B0936C01A2
:1024E00081E0809367010E94C40B1092F401109266
:1024F000C302809152018F5F883008F067C08093DB
:102500005201712C612C34CE9101A201B4018D8550
:102510009B85A980BA80CB80DC80ED80FE800F8116
:1025200018850E94FC1761F15CF1E4E6AE2EB12C37
:10253000C12CD12CE12CF12C00E010E029813A8152
:102540004B815C816D817E818F8198850E94A4166C
:102550005101620174010D851B850E94FE162093B6
:102560005701309358014093590150935A01609399
:102570005B0170935C0180935D0190935E0168CE76
:1025800074E6A72EB12CC12CD12CE12CF12C00E04B
:1025900010E09101A201B4018D859B850E94A416D3
:1025A000A980BA80CB80DC80ED80FE800F81188509
:1025B000D4CF809168018F3609F0DACD109268018E
:1025C0000E94CA02D2CD10935201F8CE109252014D
:1025D00098CF1F920F920FB60F9211248F939F9353
:1025E00080913B0190913C01019690933C01809336
:1025F0003B019F918F910F900FBE0F901F901895E8
:102600001F920F920FB60F9211242F933F934F9367
:102610005F936F937F938F939F93AF93BF93CF936A
:10262000DF93EF93FF938091800190918101A091BE
:102630008201B09183010197A109B10980938001C2
:1026400090938101A0938201B0938301892B8A2BFF
:102650008B2BD9F5C4E8D1E04D815E816F817885FF
:1026600089819A81AB81BC81481759076A077B072A
:1026700061F48881E985FA85082E000C990B09958B
:1026800088831D821E821F8218868D819E81AF8164
:10269000B8850196A11DB11D8D839E83AF83B88738
:1026A0002B9681E0C73ED807B9F680910001909142
:1026B0000101A0910201B0910301809380019093E8
:1026C0008101A0938201B0938301FF91EF91DF918B
:1026D000CF91BF91AF919F918F917F916F915F91BA
:1026E0004F913F912F910F900FBE0F901F90189513
:1026F0001F920F920FB60F9211242F933F938F9337
:102700009F93EF93FF93E091F701F091F80180819F
:102710002091F30190E002C0959587952A95E2F704
:1027200081702091F9013091FA012F5F3F4F309372
:10273000FA012093F9019091C302943618F093E0C6
:102740009093F4019091F4019130C9F188F09230A6
:1027500009F450C0933009F459C0FF91EF919F9153
:102760008F913F912F910F900FBE0F901F90189552
:102770008111F3CF8091F9019091FA01843691058E
:1027800028F41092FA011092F901E7CF1092C302D7
:10279000E091C30281E08E0F8093C302F0E080914C
:1027A000F9019091FA01EE0FFF1FE550FE4F918362
:1027B00080831092FA011092F90181E018C08823F9
:1027C00061F2E091C30281E08E0F8093C302F0E0DA
:1027D0008091F9019091FA01EE0FFF1FE550FE4F35
:1027E000918380831092FA011092F90182E0809324
:1027F000F401B3CF882361F28091F9019091FA013D
:102800008536910508F4A9CF83E0F1CF882309F438
:10281000B8CFA3CF8FEF84B915B817B888B98AB9E4
:102820001BB88AB187618AB98BB1887E8BB984B1B4
:102830008C6284B98CB580658CBD1092F30187E2FF
:1028400090E09093F6018093F50186E290E09093FA
:10285000F8018093F701F894C2E0C4BDC5BD84E6D9
:1028600087BD16BCC0936E0078941092F40110924C
:10287000C3023091F301E091F501F091F60120815E
:1028800081E090E002C0880F991F3A95E2F78095A9
:1028900090958223808328982FEF83EC99E0215034
:1028A00080409040E1F700C00000289A2FEF83ECB1
:1028B00099E0215080409040E1F700C0000081E0A5
:1028C0000E94DF022FEF82E597E021508040904088
:1028D000E1F700C0000081E10E94DF022FEF83ECEE
:1028E00099E0215080409040E1F700C000008AE369
:1028F0000E94DF0285E00E94D7028FE39CE90197E6
:10290000F1F700C0000089E20E94DF029FEF23EC94
:1029100089E0915020408040E1F700C000000E9413
:10292000E70287E690E09093C5008093C400809111
:10293000C10088608093C1008091C1008061809354
:10294000C1008091C10080688093C1008091C10066
:102950008F778093C10086E08093C20080918400CD
:10296000909185000E94221684E690E0A0E0B0E0FD
:102970008093850190938601A0938701B09388018D
:10298000109284018093890190938A01A0938B0116
:10299000B0938C018DE69FE090938E0180938D0122
:1029A00082E390E0A0E0B0E08093900190939101E9
:1029B000A0939201B093930110928F0180939401A0
:1029C00090939501A0939601B093970181E890E1CF
:1029D000909399018093980188EE93E0A0E0B0E095
:1029E00080939B0190939C01A0939D01B0939E01C5
:1029F00010929A0180939F019093A001A093A1014E
:102A0000B093A20182E292E09093A4018093A3018B
:102A10008AE590E0A0E0B0E08093A6019093A70142
:102A2000A093A801B093A9011092A5018093AA01D7
:102A30009093AB01A093AC01B093AD018AE09EE00E
:102A40009093AF018093AE0181E090E0A0E0B0E010
:102A50008093B1019093B201A093B301B093B401FC
:102A60001092B0018093B5019093B601A093B70185
:102A7000B093B8012EEE30E03093BA012093B90143
:102A80008093BC019093BD01A093BE01B093BF01A0
:102A90001092BB018093C0019093C101A093C20129
:102AA000B093C30124E331E03093C5012093C40106
:102AB0008093C7019093C801A093C901B093CA0144
:102AC0001092C6018093CB019093CC01A093CD01CD
:102AD000B093CE012AE731E03093D0012093CF01AB
:102AE00045E050E060E070E04093D2015093D301A4
:102AF0006093D4017093D5011092D1014093D60117
:102B00005093D7016093D8017093D9012DEB32E037
:102B10003093DB012093DA0140ED57E060E070E094
:102B20004093DD015093DE016093DF017093E0017B
:102B30001092DC014093E1015093E2016093E301C4
:102B40007093E40120EC31E03093E6012093E5013D
:102B50005C9A8093000190930101A0930201B093CD
:102B60000301C093B00084E08093B1008AEF8093AA
:102B7000B300C09370001092B20080910001909158
:102B80000101A0910201B091030180938001909313
:102B90008101A0938201B09383018FB780688FBFBA
:102BA000FFCF8F929F92AF92BF92CF92DF92EF9220
:102BB000FF92CF93DF93EC01688179818A819B81B9
:102BC000611571058105910521F464E279ED8BE5CC
:102BD00097E02DE133EF41E050E00E942D164901CE
:102BE0005A019B01AC01A7EAB1E40E944C166B01AB
:102BF0007C01ACEEB4EFA50194010E945A16DC01F1
:102C0000CB018C0D9D1DAE1DBF1DB7FF03C00197ED
:102C1000A109B04888839983AA83BB839F77DF91FA
:102C2000CF91FF90EF90DF90CF90BF90AF909F90AB
:102C30008F9008950E94D115089584E091E00E943C
:102C4000D1150895B0E0A0E08093040190930501B0
:102C5000A0930601B09307010895052E97FB1EF47B
:102C600000940E94441657FD07D00E945F1607FC8F
:102C700003D04EF40C944416509540953095219510
:102C80003F4F4F4F5F4F0895909580957095619598
:102C90007F4F8F4F9F4F08950E948116A59F900DE3
:102CA000B49F900DA49F800D911D11240895B7FF2E
:102CB0000C944C160E944C16821B930B0895A1E2B3
:102CC0001A2EAA1BBB1BFD010DC0AA1FBB1FEE1FA6
:102CD000FF1FA217B307E407F50720F0A21BB30BF1
:102CE000E40BF50B661F771F881F991F1A9469F76D
:102CF00060957095809590959B01AC01BD01CF01C9
:102D00000895A29FB001B39FC001A39F700D811DC4
:102D10001124911DB29F700D811D1124911D0895E4
:102D200097FB072E16F4009407D077FD09D00E9478
:102D3000111807FC05D03EF4909581959F4F08959A
:102D4000709561957F4F0895DF93CF931F930F93F5
:102D50009A9DF02D219FF00D8B9DF00D8A9DE02D09
:102D6000F10D039FF00D029FE00DF11D4E9DE00D52
:102D7000F11D5E9DF00D4F9DF00D7F936F93BF92FF
:102D8000AF925F934F93D5010E9481168B01AC01E6
:102D9000D7010E948116EB01E80FF91FD6010E94AE
:102DA000F3162F913F91D6010E948116C60FD71FAF
:102DB000E81FF91FAF91BF910E94F3162F913F9129
:102DC0000E948116C60FD71FE81FF91FD6010E9467
:102DD0008116E60FF71F9801BE01CF010F911F91D9
:102DE000CF91DF9108950E948116460F571FC81F8B
:102DF000D91F08F431960895689401C0E894F92F1A
:102E0000F12B12F00C943017A0E0B0E0EAE0F7E10B
:102E10000C94A217092E059422F40E948C171123FA
:102E200092F4F0E80F26FFEFE094F09400951095EF
:102E3000B094C094D094A194BF0ACF0ADF0AEF0ADD
:102E4000FF0A0F0B1F0B0E943B1707FC0E948C17F9
:102E5000CDB7DEB7ECE00C94BE17689401C0E894DF
:102E60008F929F92CF93DF930E943B17DF91CF9178
:102E70009F908F90089588249924F401E401B0E490
:102E80009F93AA279A158B049C04ED05FE05CF0598
:102E9000D007A10798F4AD2FDC2FCF2FFE2FE92DFF
:102EA000982C892E982F872F762F652F542F432FFC
:102EB000322F2227B85031F7BF9127C01B2EBF9168
:102EC000BB27220F331F441F551F661F771F881F04
:102ED000991F881C991CEE1FFF1FCC1FDD1FAA1F06
:102EE000BB1F8A149B04EC05FD05CE05DF05A0077A
:102EF000B10748F08A189B08EC09FD09CE09DF09E3
:102F0000A00BB10B21601A94E1F62EF49401AF01ED
:102F1000BE01CD01000C0895609570958095909547
:102F200030954095509521953F4F4F4F5F4F6F4FD4
:102F30007F4F8F4F9F4F08952F923F924F925F92F6
:102F40006F927F928F929F92AF92BF92CF92DF92B9
:102F5000EF92FF920F931F93CF93DF93CDB7DEB71E
:102F6000CA1BDB0B0FB6F894DEBF0FBECDBF0994B2
:102F70002A88398848885F846E847D848C849B8409
:102F8000AA84B984C884DF80EE80FD800C811B8117
:102F9000AA81B981CE0FD11D0FB6F894DEBF0FBE46
:102FA000CDBFED01089597FD1094002E083098F0E4
:102FB0000850232F342F452F562F672F782F892F16
:102FC000912DF4CF1594979587957795679557959B
:102FD0004795379527950A95AAF71124002D08954E
:102FE0000024A7FD00942A0F301D401D501D601DB8
:102FF000701D801D901D08952A153B054C055D052B
:103000006E057F058007910708950024A7FD0094B1
:103010002A173005400550056005700580059005AC
:103020000895AA1BBB1B51E107C0AA1FBB1FA6170F
:10303000B70710F0A61BB70B881F991F5A95A9F761
:0E30400080959095BC01CD010895F894FFCFC6
:10304E00010000000100000000F8000000FC00007C
:10305E00E0FF0000E0070000FF0700001F00000077
:10306E001FF800001FF8000088014A010601060142
:06307E004A0188010B026B
:00000001FF
